{
  "transactions": [
    {
      "hash": "0xb7acc30253c9f5408014eabb13548e2a8e3bbb9e40a3c1508a93f59f490e0f75",
      "transactionType": "CALL",
      "contractName": null,
      "contractAddress": "0x68be4fbf57b8a86f8becf70f20b5d1ab7798e0b3",
      "function": "openExhibition(uint256[],uint256,(string,string,string,uint8,uint256,string)[])",
      "arguments": [
        "[1, 2, 3, 4]",
        "25000000000000000000",
        "[(ETH-USD, https://api.coinbase.com/v2/prices/ETH-USD/spot, data.amount, 0, 1, typically 1500-4000), (SOL-USD, https://api.coinbase.com/v2/prices/SOL-USD/spot, data.amount, 0, 1, typically 50-200)]"
      ],
      "transaction": {
        "from": "0xec8b1fa455fed5def70c0ede85cfbfff752f39cf",
        "to": "0x68be4fbf57b8a86f8becf70f20b5d1ab7798e0b3",
        "value": "0xa688906bd8b00000",
        "input": "0x68562c0e00000000000000000000000000000000000000000000000000000000000000600000000000000000000000000000000000000000000000015af1d78b58c4000000000000000000000000000000000000000000000000000000000000000001000000000000000000000000000000000000000000000000000000000000000004000000000000000000000000000000000000000000000000000000000000000100000000000000000000000000000000000000000000000000000000000000020000000000000000000000000000000000000000000000000000000000000003000000000000000000000000000000000000000000000000000000000000000400000000000000000000000000000000000000000000000000000000000000020000000000000000000000000000000000000000000000000000000000000040000000000000000000000000000000000000000000000000000000000000022000000000000000000000000000000000000000000000000000000000000000c0000000000000000000000000000000000000000000000000000000000000010000000000000000000000000000000000000000000000000000000000000001600000000000000000000000000000000000000000000000000000000000000000000000000000000000000000000000000000000000000000000000000000000100000000000000000000000000000000000000000000000000000000000001a000000000000000000000000000000000000000000000000000000000000000074554482d55534400000000000000000000000000000000000000000000000000000000000000000000000000000000000000000000000000000000000000002f68747470733a2f2f6170692e636f696e626173652e636f6d2f76322f7072696365732f4554482d5553442f73706f740000000000000000000000000000000000000000000000000000000000000000000000000000000000000000000000000b646174612e616d6f756e7400000000000000000000000000000000000000000000000000000000000000000000000000000000000000000000000000000000137479706963616c6c7920313530302d343030300000000000000000000000000000000000000000000000000000000000000000000000000000000000000000c0000000000000000000000000000000000000000000000000000000000000010000000000000000000000000000000000000000000000000000000000000001600000000000000000000000000000000000000000000000000000000000000000000000000000000000000000000000000000000000000000000000000000000100000000000000000000000000000000000000000000000000000000000001a00000000000000000000000000000000000000000000000000000000000000007534f4c2d55534400000000000000000000000000000000000000000000000000000000000000000000000000000000000000000000000000000000000000002f68747470733a2f2f6170692e636f696e626173652e636f6d2f76322f7072696365732f534f4c2d5553442f73706f740000000000000000000000000000000000000000000000000000000000000000000000000000000000000000000000000b646174612e616d6f756e7400000000000000000000000000000000000000000000000000000000000000000000000000000000000000000000000000000000107479706963616c6c792035302d32303000000000000000000000000000000000",
        "nonce": "0x8d",
        "chainId": "0xc488"
      },
      "additionalContracts": [],
      "isFixedGasLimit": false
    }
  ],
  "receipts": [
    {
      "status": "0x1",
      "cumulativeGasUsed": "0x7c03f9",
      "logs": [
        {
          "address": "0xc277c3de929e41625e9c87d0f4877585466285f1",
          "topics": [
            "0x85bee99425d4f6a06c15c257ceecc8ee197041361b34cb94278663faab7dd049",
            "0x0000000000000000000000000000000000000000000000000000000000000001"
          ],
          "data": "0x0000000000000000000000000000000000000000000000000000000000000000",
          "blockHash": "0xe18ad70b220a94604a58fd5bf99b81c2081f4ada51ddf419e13eaa35c70d4c6d",
          "blockNumber": "0x17d3d375",
          "transactionHash": "0xb7acc30253c9f5408014eabb13548e2a8e3bbb9e40a3c1508a93f59f490e0f75",
          "transactionIndex": "0x0",
          "logIndex": "0x0",
          "removed": false
        },
        {
          "address": "0xc277c3de929e41625e9c87d0f4877585466285f1",
          "topics": [
            "0x85bee99425d4f6a06c15c257ceecc8ee197041361b34cb94278663faab7dd049",
            "0x0000000000000000000000000000000000000000000000000000000000000002"
          ],
          "data": "0x0000000000000000000000000000000000000000000000000000000000000000",
          "blockHash": "0xe18ad70b220a94604a58fd5bf99b81c2081f4ada51ddf419e13eaa35c70d4c6d",
          "blockNumber": "0x17d3d375",
          "transactionHash": "0xb7acc30253c9f5408014eabb13548e2a8e3bbb9e40a3c1508a93f59f490e0f75",
          "transactionIndex": "0x0",
          "logIndex": "0x1",
          "removed": false
        },
        {
          "address": "0xc277c3de929e41625e9c87d0f4877585466285f1",
          "topics": [
            "0x85bee99425d4f6a06c15c257ceecc8ee197041361b34cb94278663faab7dd049",
            "0x0000000000000000000000000000000000000000000000000000000000000003"
          ],
          "data": "0x0000000000000000000000000000000000000000000000000000000000000000",
          "blockHash": "0xe18ad70b220a94604a58fd5bf99b81c2081f4ada51ddf419e13eaa35c70d4c6d",
          "blockNumber": "0x17d3d375",
          "transactionHash": "0xb7acc30253c9f5408014eabb13548e2a8e3bbb9e40a3c1508a93f59f490e0f75",
          "transactionIndex": "0x0",
          "logIndex": "0x2",
          "removed": false
        },
        {
          "address": "0xc277c3de929e41625e9c87d0f4877585466285f1",
          "topics": [
            "0x85bee99425d4f6a06c15c257ceecc8ee197041361b34cb94278663faab7dd049",
            "0x0000000000000000000000000000000000000000000000000000000000000004"
          ],
          "data": "0x0000000000000000000000000000000000000000000000000000000000000000",
          "blockHash": "0xe18ad70b220a94604a58fd5bf99b81c2081f4ada51ddf419e13eaa35c70d4c6d",
          "blockNumber": "0x17d3d375",
          "transactionHash": "0xb7acc30253c9f5408014eabb13548e2a8e3bbb9e40a3c1508a93f59f490e0f75",
          "transactionIndex": "0x0",
          "logIndex": "0x3",
          "removed": false
        },
        {
          "address": "0x68be4fbf57b8a86f8becf70f20b5d1ab7798e0b3",
          "topics": [
            "0x685ef16396493fa49601f80097f7d987a2db0d0ad46c43df94d3f28861259ac7",
            "0x000000000000000000000000000000000000000000000000000000000000006c"
          ],
          "data": "0x00000000000000000000000000000000000000000000000000000000000000000000000000000000000000000000000000000000000000000000000000000080000000000000000000000000000000000000000000000000000000000000000a000000000000000000000000000000000000000000000000000000000000000200000000000000000000000000000000000000000000000000000000000000040000000000000000000000000000000000000000000000000000000000000001000000000000000000000000000000000000000000000000000000000000000200000000000000000000000000000000000000000000000000000000000000030000000000000000000000000000000000000000000000000000000000000004",
          "blockHash": "0xe18ad70b220a94604a58fd5bf99b81c2081f4ada51ddf419e13eaa35c70d4c6d",
          "blockNumber": "0x17d3d375",
          "transactionHash": "0xb7acc30253c9f5408014eabb13548e2a8e3bbb9e40a3c1508a93f59f490e0f75",
          "transactionIndex": "0x0",
          "logIndex": "0x4",
          "removed": false
        },
        {
          "address": "0x037bb9c718f3f7fe5ecbdb0b600d607b52706776",
          "topics": [
            "0xb62339927ed9948fd837358a55f5b9a824f7b047043faece66965593ed726889",
            "0x000000000000000000000000000000000000000000000000000000000042cc6a",
            "0x000000000000000000000000000000000000000000000000b6d47da8dbbcb1b1"
          ],
          "data": "0x000000000000000000000000000000000000000000000000006a94d74f430000000000000000000000000000000000000000000000000000000000000000006000000000000000000000000000000000000000000000000000000000000001a000000000000000000000000000000000000000000000000000000000000001043bbc1302000000000000000000000000000000000000000000000000000000000000006000000000000000000000000000000000000000000000000000000000000000c00000000000000000000000000000000000000000000000000000000000000000000000000000000000000000000000000000000000000000000000000000002f68747470733a2f2f6170692e636f696e626173652e636f6d2f76322f7072696365732f4554482d5553442f73706f740000000000000000000000000000000000000000000000000000000000000000000000000000000000000000000000000b646174612e616d6f756e740000000000000000000000000000000000000000000000000000000000000000000000000000000000000000000000000000000000000000000000000000000000000000000000000000000000000000030000000000000000000000001cb38b3ee632b5dcc0347db81766606d6aad492600000000000000000000000005f1fe2ddf9b65576d3165e37c6a60e6c5ba93de00000000000000000000000055acbe370872c7d90f504ef169217a00c29e2a33",
          "blockHash": "0xe18ad70b220a94604a58fd5bf99b81c2081f4ada51ddf419e13eaa35c70d4c6d",
          "blockNumber": "0x17d3d375",
          "transactionHash": "0xb7acc30253c9f5408014eabb13548e2a8e3bbb9e40a3c1508a93f59f490e0f75",
          "transactionIndex": "0x0",
          "logIndex": "0x5",
          "removed": false
        },
        {
          "address": "0x68be4fbf57b8a86f8becf70f20b5d1ab7798e0b3",
          "topics": [
            "0xf98e18bb2828ff6fd29ca6214d585469dd4c2f311d2b765ab247985ba08b111b",
            "0x000000000000000000000000000000000000000000000000000000000042cc6a",
            "0x000000000000000000000000000000000000000000000000b6d47da8dbbcb1b1"
          ],
          "data": "0x00000000000000000000000000000000000000000000000001aa535d3d0c0000",
          "blockHash": "0xe18ad70b220a94604a58fd5bf99b81c2081f4ada51ddf419e13eaa35c70d4c6d",
          "blockNumber": "0x17d3d375",
          "transactionHash": "0xb7acc30253c9f5408014eabb13548e2a8e3bbb9e40a3c1508a93f59f490e0f75",
          "transactionIndex": "0x0",
          "logIndex": "0x6",
          "removed": false
        },
        {
          "address": "0x68be4fbf57b8a86f8becf70f20b5d1ab7798e0b3",
          "topics": [
            "0xa4349934337ef03da2d6842906da72af59a546caf77b14f5e880496cec251fbc",
            "0x000000000000000000000000000000000000000000000000000000000000006c"
          ],
          "data": "0x0000000000000000000000000000000000000000000000000000000000000000000000000000000000000000000000000000000000000000000000000042cc6a",
          "blockHash": "0xe18ad70b220a94604a58fd5bf99b81c2081f4ada51ddf419e13eaa35c70d4c6d",
          "blockNumber": "0x17d3d375",
          "transactionHash": "0xb7acc30253c9f5408014eabb13548e2a8e3bbb9e40a3c1508a93f59f490e0f75",
          "transactionIndex": "0x0",
          "logIndex": "0x7",
          "removed": false
        },
        {
          "address": "0x037bb9c718f3f7fe5ecbdb0b600d607b52706776",
          "topics": [
            "0xb62339927ed9948fd837358a55f5b9a824f7b047043faece66965593ed726889",
            "0x000000000000000000000000000000000000000000000000000000000042cc6b",
            "0x000000000000000000000000000000000000000000000000b6d47da8dbbcb1b1"
          ],
          "data": "0x000000000000000000000000000000000000000000000000006a94d74f430000000000000000000000000000000000000000000000000000000000000000006000000000000000000000000000000000000000000000000000000000000001a000000000000000000000000000000000000000000000000000000000000001043bbc1302000000000000000000000000000000000000000000000000000000000000006000000000000000000000000000000000000000000000000000000000000000c00000000000000000000000000000000000000000000000000000000000000000000000000000000000000000000000000000000000000000000000000000002f68747470733a2f2f6170692e636f696e626173652e636f6d2f76322f7072696365732f534f4c2d5553442f73706f740000000000000000000000000000000000000000000000000000000000000000000000000000000000000000000000000b646174612e616d6f756e740000000000000000000000000000000000000000000000000000000000000000000000000000000000000000000000000000000000000000000000000000000000000000000000000000000000000000030000000000000000000000003e05e29029c60e000c8f01eb5ac9cee6b242d7e000000000000000000000000055acbe370872c7d90f504ef169217a00c29e2a3300000000000000000000000005f1fe2ddf9b65576d3165e37c6a60e6c5ba93de",
          "blockHash": "0xe18ad70b220a94604a58fd5bf99b81c2081f4ada51ddf419e13eaa35c70d4c6d",
          "blockNumber": "0x17d3d375",
          "transactionHash": "0xb7acc30253c9f5408014eabb13548e2a8e3bbb9e40a3c1508a93f59f490e0f75",
          "transactionIndex": "0x0",
          "logIndex": "0x8",
          "removed": false
        },
        {
          "address": "0x68be4fbf57b8a86f8becf70f20b5d1ab7798e0b3",
          "topics": [
            "0xf98e18bb2828ff6fd29ca6214d585469dd4c2f311d2b765ab247985ba08b111b",
            "0x000000000000000000000000000000000000000000000000000000000042cc6b",
            "0x000000000000000000000000000000000000000000000000b6d47da8dbbcb1b1"
          ],
          "data": "0x00000000000000000000000000000000000000000000000001aa535d3d0c0000",
          "blockHash": "0xe18ad70b220a94604a58fd5bf99b81c2081f4ada51ddf419e13eaa35c70d4c6d",
          "blockNumber": "0x17d3d375",
          "transactionHash": "0xb7acc30253c9f5408014eabb13548e2a8e3bbb9e40a3c1508a93f59f490e0f75",
          "transactionIndex": "0x0",
          "logIndex": "0x9",
          "removed": false
        },
        {
          "address": "0x68be4fbf57b8a86f8becf70f20b5d1ab7798e0b3",
          "topics": [
            "0xa4349934337ef03da2d6842906da72af59a546caf77b14f5e880496cec251fbc",
            "0x000000000000000000000000000000000000000000000000000000000000006c"
          ],
          "data": "0x0000000000000000000000000000000000000000000000000000000000000001000000000000000000000000000000000000000000000000000000000042cc6b",
          "blockHash": "0xe18ad70b220a94604a58fd5bf99b81c2081f4ada51ddf419e13eaa35c70d4c6d",
          "blockNumber": "0x17d3d375",
          "transactionHash": "0xb7acc30253c9f5408014eabb13548e2a8e3bbb9e40a3c1508a93f59f490e0f75",
          "transactionIndex": "0x0",
          "logIndex": "0xa",
          "removed": false
        }
      ],
      "logsBloom": "0x0400000000000000000000000000020000000002000000000010000000000000000000000000008000080000800000010000000002000002000000000004000040040000000000080000000000000000000000000004000000000000000000000800000000000000000001000800000000000004000000000000000000000000000000000000000000000000000000000000000800000400000000000000012000300000000004000000010000000000000000000080000000200000a00040000000000000100000000008000000000000000000800000000000080000004000000000000100000000020008080000100000000880c000040000000000000000",
      "type": "0x2",
      "transactionHash": "0xb7acc30253c9f5408014eabb13548e2a8e3bbb9e40a3c1508a93f59f490e0f75",
      "transactionIndex": "0x0",
      "blockHash": "0xe18ad70b220a94604a58fd5bf99b81c2081f4ada51ddf419e13eaa35c70d4c6d",
      "blockNumber": "0x17d3d375",
      "gasUsed": "0x7c03f9",
      "effectiveGasPrice": "0x165a0bc00",
      "from": "0xec8b1fa455fed5def70c0ede85cfbfff752f39cf",
      "to": "0x68be4fbf57b8a86f8becf70f20b5d1ab7798e0b3",
      "contractAddress": null
    }
  ],
  "libraries": [],
  "pending": [],
  "returns": {},
  "timestamp": 1780517447015,
  "chain": 50312,
  "commit": "393d9db"
}