{
  "transactions": [
    {
      "hash": null,
      "transactionType": "CALL",
      "contractName": null,
      "contractAddress": "0xb129ec7d06e3136517c188113fe9b8a10f882738",
      "function": "openExhibition(uint256[],uint256,uint8,(string,string,string,uint8,uint256,string)[])",
      "arguments": [
        "[1, 2, 3, 4]",
        "25000000000000000000",
        "2",
        "[(ETH-USD, https://api.coinbase.com/v2/prices/ETH-USD/spot, data.amount, 0, 1, typically 1500-4000), (SOL-USD, https://api.coinbase.com/v2/prices/SOL-USD/spot, data.amount, 0, 1, typically 50-200)]"
      ],
      "transaction": {
        "from": "0xec8b1fa455fed5def70c0ede85cfbfff752f39cf",
        "to": "0xb129ec7d06e3136517c188113fe9b8a10f882738",
        "gas": "0x1ba29c",
        "value": "0x4563918244f40000",
        "input": "0xd6b4ee6300000000000000000000000000000000000000000000000000000000000000800000000000000000000000000000000000000000000000015af1d78b58c40000000000000000000000000000000000000000000000000000000000000000000200000000000000000000000000000000000000000000000000000000000001200000000000000000000000000000000000000000000000000000000000000004000000000000000000000000000000000000000000000000000000000000000100000000000000000000000000000000000000000000000000000000000000020000000000000000000000000000000000000000000000000000000000000003000000000000000000000000000000000000000000000000000000000000000400000000000000000000000000000000000000000000000000000000000000020000000000000000000000000000000000000000000000000000000000000040000000000000000000000000000000000000000000000000000000000000022000000000000000000000000000000000000000000000000000000000000000c0000000000000000000000000000000000000000000000000000000000000010000000000000000000000000000000000000000000000000000000000000001600000000000000000000000000000000000000000000000000000000000000000000000000000000000000000000000000000000000000000000000000000000100000000000000000000000000000000000000000000000000000000000001a000000000000000000000000000000000000000000000000000000000000000074554482d55534400000000000000000000000000000000000000000000000000000000000000000000000000000000000000000000000000000000000000002f68747470733a2f2f6170692e636f696e626173652e636f6d2f76322f7072696365732f4554482d5553442f73706f740000000000000000000000000000000000000000000000000000000000000000000000000000000000000000000000000b646174612e616d6f756e7400000000000000000000000000000000000000000000000000000000000000000000000000000000000000000000000000000000137479706963616c6c7920313530302d343030300000000000000000000000000000000000000000000000000000000000000000000000000000000000000000c0000000000000000000000000000000000000000000000000000000000000010000000000000000000000000000000000000000000000000000000000000001600000000000000000000000000000000000000000000000000000000000000000000000000000000000000000000000000000000000000000000000000000000100000000000000000000000000000000000000000000000000000000000001a00000000000000000000000000000000000000000000000000000000000000007534f4c2d55534400000000000000000000000000000000000000000000000000000000000000000000000000000000000000000000000000000000000000002f68747470733a2f2f6170692e636f696e626173652e636f6d2f76322f7072696365732f534f4c2d5553442f73706f740000000000000000000000000000000000000000000000000000000000000000000000000000000000000000000000000b646174612e616d6f756e7400000000000000000000000000000000000000000000000000000000000000000000000000000000000000000000000000000000107479706963616c6c792035302d32303000000000000000000000000000000000",
        "nonce": "0x6f",
        "chainId": "0xc488"
      },
      "additionalContracts": [],
      "isFixedGasLimit": false
    }
  ],
  "receipts": [],
  "libraries": [],
  "pending": [],
  "returns": {},
  "timestamp": 1780408583332,
  "chain": 50312,
  "commit": "8c34590"
}